S0160000627572616E5F6669726D776172652E737265633A
S113000078080020F1000000ED000000ED00000081
S113001000000000000000000000000000000000DC
S1130020000000000000000000000000ED000000DF
S11300300000000000000000ED000000ED000000E2
S1130040ED000000ED000000ED000000ED000000F8
S1130050ED000000ED000000ED000000ED000000E8
S1130060ED000000ED000000ED000000ED000000D8
S1130070ED000000ED000000ED000000ED000000C8
S1130080ED000000ED000000ED00000010B5064C8E
S11300902378002B07D1054B002B02D0044800E045
S11300A000BF0123237010BD3404002000000000B1
S11300B098030000084B10B5002B03D007490848EB
S11300C000E000BF07480368002B00D110BD064BB9
S11300D0002BFBD09847F9E700000000380400200B
S11300E0980300009803000000000000FEE70000F1
S11300F0F8B5234A234B9A4209D0224B204A03E005
S113010011681960043304321F498B42F8D31F4B22
S113011002E000221A6004331D4A9342F9D31D4AB7
S1130120FF211D4B8B439360FD3990235B001B4AD9
S1130130D1501B4AD3780325AB4302242343D37005
S1130140D3780C27BB4308263343D370154B987BD5
S113015030229043202210439873997BB943314352
S113016099739A7BAA4322439A730F4A5168802356
S11301700B4353600D4B98470D4B9847FEE7C04621
S11301809803000000000020340400203404002000
S11301907404002000ED00E0000000000070004145
S11301A0005000410048004100400041D1010000DE
S11301B0C5010000014A024B1A60704740420F001B
S11301C00000002010B5014B9847FEE7B501000080
S11301D070B50D4E0D4D0024AD1BAD1005D0A30020
S11301E0F35801349847A542F9D100F0C3F8084EFA
S11301F0084D0024AD1BAD1005D0A300F358013405
S11302009847A542F9D170BD800300008003000027
S11302108003000088030000034B10B5002B02D0BC
S1130220024800F005F810BD000000004102000083
S113023010B5010000230022002000F01FF810BDBB
S113024070B5094B094CE41AA41009D0084AA51842
S1130250AD00ED182B68013C9847043D002CF9D102
S113026000F092F870BDC0469403000098030000AB
S1130270FFFFFF3F7047C0467047C046F0B54E468B
S11302804546DE465746E0B5364D83B0060028683D
S113029098460F009146FFF7EDFF334B1C68A423EB
S11302A05B00E058002852D043681F2B13DC5A1C13
S11302B00192002E28D1019A02339B0042601F5004
S11302C02868FFF7D9FF002003B03CBC904699464C
S11302D0A246AB46F0BD254B002B3DD0C8204000C4
S11302E000E000BF002837D0A42200235200A15808
S11302F043600160A0504032835004328350013384
S113030001930023002ED6D09A00924682444A4696
S1130310882154466250C4225200914681444A4680
S11303208739994012688B460A4394464A46614687
S11303301160842241465200A150022EBBD102001A
S11303405C468D32FF3211680C431460B3E7200021
S11303504D30FF30E050A7E72868FFF78DFF0120FC
S11303604042B1E7300400207003000000000000A8
S113037008000020F8B5C046F8BC08BC9E4670478B
S113038019020000B5000000F8B5C046F8BC08BC6E
S10B03909E4670478D00000039
S113039840420F000000000000000000F4020020AA
S11303A85C030020C40300200000000000000000DB
S11303B80000000000000000000000000000000031
S11303C80000000000000000000000000000000021
S11303D80000000000000000000000000000000011
S11303E80000000000000000000000000000000001
S11303F800000000000000000000000000000000F1
S113040800000000000000000000000000000000E0
S113041800000000000000000000000000000000D0
S113042800000000000000000000000000000000C0
S113043800000000000000000000000000000000B0
S113044801000000000000000E33CDAB34126DE64D
S1130458ECDE05000B0000000000000000000000B6
S11304680000000000000000000000000000000080
S11304780000000000000000000000000000000070
S11304880000000000000000000000000000000060
S11304980000000000000000000000000000000050
S10707C850040020B5
S9030000FC
